{
  "transactions": [
    {
      "hash": "0x98937727633e721ddffcbb634b4189da05ad21c78cbf8eb86374b5faebdfa8f8",
      "transactionType": "CREATE",
      "contractName": null,
      "contractAddress": "0x9f86add8e3489c104bde7864b4f733e3b65b2509",
      "function": null,
      "arguments": null,
      "transaction": {
        "from": "0x9f2b97c65a107e35ae2204064c181ba7d6ea7610",
        "gas": "0x3d766",
        "value": "0x0",
        "input": "0x60806040526001805460ff60a01b1916600160a01b17905534801561002357600080fd5b5060405161026038038061026083398101604081905261004291610074565b600080546001600160a01b03199081166001600160a01b039384161791829055600180549290931691161790556100a2565b600060208284031215610085578081fd5b81516001600160a01b038116811461009b578182fd5b9392505050565b6101af806100b16000396000f3fe608060405234801561001057600080fd5b50600436106100415760003560e01c80635f9a4bca14610046578063b58a14fe1461006f578063eeeb7a3614610084575b600080fd5b610059610054366004610139565b610099565b6040516100669190610165565b60405180910390f35b61008261007d366004610139565b6100c5565b005b61008c61012a565b6040516100669190610151565b6001805460ff600160a01b808304821615810260ff60a01b199093169290921792839055910416919050565b600154604051633b669c4d60e21b81526001600160a01b039091169063ed9a7134906100f5908490600401610170565b600060405180830381600087803b15801561010f57600080fd5b505af1158015610123573d6000803e3d6000fd5b5050505050565b6000546001600160a01b031681565b60006020828403121561014a578081fd5b5035919050565b6001600160a01b0391909116815260200190565b901515815260200190565b9081526020019056fea2646970667358221220478baa6396ede79132608890fb7bd4036c0b121b210af6486ecb88325d24130164736f6c634300080000330000000000000000000000009d29d33d4329640e96cc259e141838eb3eb2f1d9",
        "nonce": "0x36",
        "chainId": "0xaa36a7"
      },
      "additionalContracts": [],
      "isFixedGasLimit": false
    },
    {
      "hash": "0x455965eddcd8f0b56d39963c1a45ea4e7c9d70d5a6dc571eec07fdbdce240b93",
      "transactionType": "CALL",
      "contractName": null,
      "contractAddress": "0x9f86add8e3489c104bde7864b4f733e3b65b2509",
      "function": "goToHack(uint256)",
      "arguments": [
        "2000"
      ],
      "transaction": {
        "from": "0x9f2b97c65a107e35ae2204064c181ba7d6ea7610",
        "to": "0x9f86add8e3489c104bde7864b4f733e3b65b2509",
        "gas": "0xd7f5",
        "value": "0x0",
        "input": "0xb58a14fe00000000000000000000000000000000000000000000000000000000000007d0",
        "nonce": "0x37",
        "chainId": "0xaa36a7"
      },
      "additionalContracts": [],
      "isFixedGasLimit": false
    }
  ],
  "receipts": [
    {
      "status": "0x1",
      "cumulativeGasUsed": "0x7c4733",
      "logs": [],
      "logsBloom": "0x00000000000000000000000000000000000000000000000000000000000000000000000000000000000000000000000000000000000000000000000000000000000000000000000000000000000000000000000000000000000000000000000000000000000000000000000000000000000000000000000000000000000000000000000000000000000000000000000000000000000000000000000000000000000000000000000000000000000000000000000000000000000000000000000000000000000000000000000000000000000000000000000000000000000000000000000000000000000000000000000000000000000000000000000000000000",
      "type": "0x2",
      "transactionHash": "0x98937727633e721ddffcbb634b4189da05ad21c78cbf8eb86374b5faebdfa8f8",
      "transactionIndex": "0x43",
      "blockHash": "0xe3d2358509072d699096a8ee625ce3f7a37e9695f3c38de0e724563e96f4cc4a",
      "blockNumber": "0x60fb5b",
      "gasUsed": "0x2f49e",
      "effectiveGasPrice": "0x61e30e289",
      "from": "0x9f2b97c65a107e35ae2204064c181ba7d6ea7610",
      "to": null,
      "contractAddress": "0x9f86add8e3489c104bde7864b4f733e3b65b2509"
    },
    {
      "status": "0x1",
      "cumulativeGasUsed": "0x7d5409",
      "logs": [],
      "logsBloom": "0x00000000000000000000000000000000000000000000000000000000000000000000000000000000000000000000000000000000000000000000000000000000000000000000000000000000000000000000000000000000000000000000000000000000000000000000000000000000000000000000000000000000000000000000000000000000000000000000000000000000000000000000000000000000000000000000000000000000000000000000000000000000000000000000000000000000000000000000000000000000000000000000000000000000000000000000000000000000000000000000000000000000000000000000000000000000",
      "type": "0x2",
      "transactionHash": "0x455965eddcd8f0b56d39963c1a45ea4e7c9d70d5a6dc571eec07fdbdce240b93",
      "transactionIndex": "0x45",
      "blockHash": "0xe3d2358509072d699096a8ee625ce3f7a37e9695f3c38de0e724563e96f4cc4a",
      "blockNumber": "0x60fb5b",
      "gasUsed": "0x93aa",
      "effectiveGasPrice": "0x61e30e289",
      "from": "0x9f2b97c65a107e35ae2204064c181ba7d6ea7610",
      "to": "0x9f86add8e3489c104bde7864b4f733e3b65b2509",
      "contractAddress": null
    }
  ],
  "libraries": [],
  "pending": [],
  "returns": {},
  "timestamp": 1721646483,
  "chain": 11155111,
  "commit": "fe1268c"
}