{
  "transactions": [
    {
      "hash": "0x7e6cb36f39cfffc17d8178a26479f0ecff2aadb1c0c1e16953a108775177005a",
      "transactionType": "CREATE",
      "contractName": null,
      "contractAddress": "0x16b2b63dd40237bcc800ea22c2fc7bf749608860",
      "function": null,
      "arguments": null,
      "transaction": {
        "from": "0x9f2b97c65a107e35ae2204064c181ba7d6ea7610",
        "gas": "0x3d766",
        "value": "0x0",
        "input": "0x60806040526001805460ff60a01b1916600160a01b17905534801561002357600080fd5b5060405161026038038061026083398101604081905261004291610074565b600080546001600160a01b03199081166001600160a01b039384161791829055600180549290931691161790556100a2565b600060208284031215610085578081fd5b81516001600160a01b038116811461009b578182fd5b9392505050565b6101af806100b16000396000f3fe608060405234801561001057600080fd5b50600436106100415760003560e01c80635f9a4bca14610046578063b58a14fe1461006f578063eeeb7a3614610084575b600080fd5b610059610054366004610139565b610099565b6040516100669190610165565b60405180910390f35b61008261007d366004610139565b6100c5565b005b61008c61012a565b6040516100669190610151565b6001805460ff600160a01b808304821615810260ff60a01b199093169290921792839055910416919050565b600154604051633b669c4d60e21b81526001600160a01b039091169063ed9a7134906100f5908490600401610170565b600060405180830381600087803b15801561010f57600080fd5b505af1158015610123573d6000803e3d6000fd5b5050505050565b6000546001600160a01b031681565b60006020828403121561014a578081fd5b5035919050565b6001600160a01b0391909116815260200190565b901515815260200190565b9081526020019056fea2646970667358221220478baa6396ede79132608890fb7bd4036c0b121b210af6486ecb88325d24130164736f6c634300080000330000000000000000000000009d29d33d4329640e96cc259e141838eb3eb2f1d9",
        "nonce": "0x2c",
        "chainId": "0xaa36a7"
      },
      "additionalContracts": [],
      "isFixedGasLimit": false
    },
    {
      "hash": "0x3e86830f9b56e0ef8bd8acc5f9c96c46e1e72dd1bcfc7fec645e7850ef8c264b",
      "transactionType": "CALL",
      "contractName": null,
      "contractAddress": "0x16b2b63dd40237bcc800ea22c2fc7bf749608860",
      "function": "goToHack(uint256)",
      "arguments": [
        "2000"
      ],
      "transaction": {
        "from": "0x9f2b97c65a107e35ae2204064c181ba7d6ea7610",
        "to": "0x16b2b63dd40237bcc800ea22c2fc7bf749608860",
        "gas": "0x22bac",
        "value": "0x0",
        "input": "0xb58a14fe00000000000000000000000000000000000000000000000000000000000007d0",
        "nonce": "0x2d",
        "chainId": "0xaa36a7"
      },
      "additionalContracts": [],
      "isFixedGasLimit": false
    }
  ],
  "receipts": [
    {
      "status": "0x1",
      "cumulativeGasUsed": "0x9f5436",
      "logs": [],
      "logsBloom": "0x00000000000000000000000000000000000000000000000000000000000000000000000000000000000000000000000000000000000000000000000000000000000000000000000000000000000000000000000000000000000000000000000000000000000000000000000000000000000000000000000000000000000000000000000000000000000000000000000000000000000000000000000000000000000000000000000000000000000000000000000000000000000000000000000000000000000000000000000000000000000000000000000000000000000000000000000000000000000000000000000000000000000000000000000000000000",
      "type": "0x2",
      "transactionHash": "0x7e6cb36f39cfffc17d8178a26479f0ecff2aadb1c0c1e16953a108775177005a",
      "transactionIndex": "0x47",
      "blockHash": "0x47ec113990eff54ae3dc3222126ee6c443ef7bddddfab9683ec84abd2eb9ce8f",
      "blockNumber": "0x60fb2d",
      "gasUsed": "0x2f49e",
      "effectiveGasPrice": "0x6aff5a348",
      "from": "0x9f2b97c65a107e35ae2204064c181ba7d6ea7610",
      "to": null,
      "contractAddress": "0x16b2b63dd40237bcc800ea22c2fc7bf749608860"
    },
    {
      "status": "0x1",
      "cumulativeGasUsed": "0xa0e683",
      "logs": [],
      "logsBloom": "0x00000000000000000000000000000000000000000000000000000000000000000000000000000000000000000000000000000000000000000000000000000000000000000000000000000000000000000000000000000000000000000000000000000000000000000000000000000000000000000000000000000000000000000000000000000000000000000000000000000000000000000000000000000000000000000000000000000000000000000000000000000000000000000000000000000000000000000000000000000000000000000000000000000000000000000000000000000000000000000000000000000000000000000000000000000000",
      "type": "0x2",
      "transactionHash": "0x3e86830f9b56e0ef8bd8acc5f9c96c46e1e72dd1bcfc7fec645e7850ef8c264b",
      "transactionIndex": "0x48",
      "blockHash": "0x47ec113990eff54ae3dc3222126ee6c443ef7bddddfab9683ec84abd2eb9ce8f",
      "blockNumber": "0x60fb2d",
      "gasUsed": "0x1924d",
      "effectiveGasPrice": "0x6aff5a348",
      "from": "0x9f2b97c65a107e35ae2204064c181ba7d6ea7610",
      "to": "0x16b2b63dd40237bcc800ea22c2fc7bf749608860",
      "contractAddress": null
    }
  ],
  "libraries": [],
  "pending": [],
  "returns": {},
  "timestamp": 1721645784,
  "chain": 11155111,
  "commit": "fe1268c"
}