{
  "transactions": [
    {
      "hash": "0x0528f011a876c65d6903a068788ad0ea350e2f5dd9f169429e9385955aa7bf4f",
      "transactionType": "CALL",
      "contractName": null,
      "contractAddress": "0x9d29d33d4329640e96cc259e141838eb3eb2f1d9",
      "function": "sendKey(bytes16)",
      "arguments": [
        "0x4cded594c37730434fcf53dd25e29ab500000000000000000000000000000000"
      ],
      "transaction": {
        "from": "0x9f2b97c65a107e35ae2204064c181ba7d6ea7610",
        "to": "0x9d29d33d4329640e96cc259e141838eb3eb2f1d9",
        "gas": "0x12186",
        "value": "0x0",
        "input": "0x9d3ad91a4cded594c37730434fcf53dd25e29ab500000000000000000000000000000000",
        "nonce": "0x2b",
        "chainId": "0xaa36a7"
      },
      "additionalContracts": [],
      "isFixedGasLimit": false
    }
  ],
  "receipts": [
    {
      "status": "0x1",
      "cumulativeGasUsed": "0xda1469",
      "logs": [],
      "logsBloom": "0x00000000000000000000000000000000000000000000000000000000000000000000000000000000000000000000000000000000000000000000000000000000000000000000000000000000000000000000000000000000000000000000000000000000000000000000000000000000000000000000000000000000000000000000000000000000000000000000000000000000000000000000000000000000000000000000000000000000000000000000000000000000000000000000000000000000000000000000000000000000000000000000000000000000000000000000000000000000000000000000000000000000000000000000000000000000",
      "type": "0x2",
      "transactionHash": "0x0528f011a876c65d6903a068788ad0ea350e2f5dd9f169429e9385955aa7bf4f",
      "transactionIndex": "0x77",
      "blockHash": "0x67fca070b2e076197b1a789d3d59545afe6ec779445cd95e10cab9321993d90c",
      "blockNumber": "0x60fb22",
      "gasUsed": "0xd19d",
      "effectiveGasPrice": "0x7bb398e82",
      "from": "0x9f2b97c65a107e35ae2204064c181ba7d6ea7610",
      "to": "0x9d29d33d4329640e96cc259e141838eb3eb2f1d9",
      "contractAddress": null
    }
  ],
  "libraries": [],
  "pending": [],
  "returns": {},
  "timestamp": 1721645647,
  "chain": 11155111,
  "commit": "fe1268c"
}