{
  "transactions": [
    {
      "hash": "0x0eaf81b6cbcab32e3a1a48529cae20e5f93c48ef3601d41251f871fe6a7be6c9",
      "transactionType": "CALL",
      "contractName": null,
      "contractAddress": "0x9d29d33d4329640e96cc259e141838eb3eb2f1d9",
      "function": "sendKey(bytes16)",
      "arguments": [
        "0x4cded594c37730434fcf53dd25e29ab500000000000000000000000000000000"
      ],
      "transaction": {
        "from": "0x9f2b97c65a107e35ae2204064c181ba7d6ea7610",
        "to": "0x9d29d33d4329640e96cc259e141838eb3eb2f1d9",
        "gas": "0xa187",
        "value": "0x0",
        "input": "0x9d3ad91a4cded594c37730434fcf53dd25e29ab500000000000000000000000000000000",
        "nonce": "0x33",
        "chainId": "0xaa36a7"
      },
      "additionalContracts": [],
      "isFixedGasLimit": false
    }
  ],
  "receipts": [
    {
      "status": "0x1",
      "cumulativeGasUsed": "0xa1b3c9",
      "logs": [],
      "logsBloom": "0x00000000000000000000000000000000000000000000000000000000000000000000000000000000000000000000000000000000000000000000000000000000000000000000000000000000000000000000000000000000000000000000000000000000000000000000000000000000000000000000000000000000000000000000000000000000000000000000000000000000000000000000000000000000000000000000000000000000000000000000000000000000000000000000000000000000000000000000000000000000000000000000000000000000000000000000000000000000000000000000000000000000000000000000000000000000",
      "type": "0x2",
      "transactionHash": "0x0eaf81b6cbcab32e3a1a48529cae20e5f93c48ef3601d41251f871fe6a7be6c9",
      "transactionIndex": "0x4c",
      "blockHash": "0x820b2263fe6e23800aff0f5e04a298fa925983b830c9ae19f55d92cce8eb5043",
      "blockNumber": "0x60fb51",
      "gasUsed": "0x6e73",
      "effectiveGasPrice": "0x604bb9618",
      "from": "0x9f2b97c65a107e35ae2204064c181ba7d6ea7610",
      "to": "0x9d29d33d4329640e96cc259e141838eb3eb2f1d9",
      "contractAddress": null
    }
  ],
  "libraries": [],
  "pending": [],
  "returns": {},
  "timestamp": 1721646327,
  "chain": 11155111,
  "commit": "fe1268c"
}