{
  "transactions": [
    {
      "hash": "0xcd3ceab2e51c97cc77fdfe7d2a668ac9c505f2dac565bff6ad1a47b3b8c5e92e",
      "transactionType": "CALL",
      "contractName": null,
      "contractAddress": "0x9d29d33d4329640e96cc259e141838eb3eb2f1d9",
      "function": "sendPassword(bytes32)",
      "arguments": [
        "0xde241fe7f783f2ed343248c0762dade0cf4eea6ed49dfe2f9f1267483c9eade8"
      ],
      "transaction": {
        "from": "0x9f2b97c65a107e35ae2204064c181ba7d6ea7610",
        "to": "0x9d29d33d4329640e96cc259e141838eb3eb2f1d9",
        "gas": "0x194ce",
        "value": "0x0",
        "input": "0x5c8d2c38de241fe7f783f2ed343248c0762dade0cf4eea6ed49dfe2f9f1267483c9eade8",
        "nonce": "0x2a",
        "chainId": "0xaa36a7"
      },
      "additionalContracts": [],
      "isFixedGasLimit": false
    }
  ],
  "receipts": [
    {
      "status": "0x1",
      "cumulativeGasUsed": "0x5eb3d4",
      "logs": [],
      "logsBloom": "0x00000000000000000000000000000000000000000000000000000000000000000000000000000000000000000000000000000000000000000000000000000000000000000000000000000000000000000000000000000000000000000000000000000000000000000000000000000000000000000000000000000000000000000000000000000000000000000000000000000000000000000000000000000000000000000000000000000000000000000000000000000000000000000000000000000000000000000000000000000000000000000000000000000000000000000000000000000000000000000000000000000000000000000000000000000000",
      "type": "0x2",
      "transactionHash": "0xcd3ceab2e51c97cc77fdfe7d2a668ac9c505f2dac565bff6ad1a47b3b8c5e92e",
      "transactionIndex": "0x49",
      "blockHash": "0x7de9455cf3f8a2f7c42ca85434a519e885294a3f217489e79d8a94afb263be9c",
      "blockNumber": "0x60fb21",
      "gasUsed": "0x114cb",
      "effectiveGasPrice": "0x82152087f",
      "from": "0x9f2b97c65a107e35ae2204064c181ba7d6ea7610",
      "to": "0x9d29d33d4329640e96cc259e141838eb3eb2f1d9",
      "contractAddress": null
    }
  ],
  "libraries": [],
  "pending": [],
  "returns": {},
  "timestamp": 1721645619,
  "chain": 11155111,
  "commit": "fe1268c"
}